{"contracts/AutoMonEscrow.sol":{"AutoMonEscrow":{"abi":[{"inputs":[],"stateMutability":"nonpayable","type":"constructor"},{"inputs":[],"name":"AlreadyJoined","type":"error"},{"inputs":[],"name":"AlreadySettled","type":"error"},{"inputs":[],"name":"BattleAlreadyExists","type":"error"},{"inputs":[],"name":"BattleFull","type":"error"},{"inputs":[],"name":"BattleNotFound","type":"error"},{"inputs":[],"name":"BattleNotStarted","type":"error"},{"inputs":[],"name":"CannotJoinOwnBattle","type":"error"},{"inputs":[],"name":"FeeTooHigh","type":"error"},{"inputs":[],"name":"InvalidAddress","type":"error"},{"inputs":[],"name":"InvalidWinner","type":"error"},{"inputs":[],"name":"MustWagerSomething","type":"error"},{"inputs":[],"name":"NoBalance","type":"error"},{"inputs":[],"name":"OnlyAdmin","type":"error"},{"inputs":[],"name":"OnlyCreator","type":"error"},{"inputs":[],"name":"ReentrancyGuardReentrantCall","type":"error"},{"inputs":[],"name":"TransferFailed","type":"error"},{"inputs":[],"name":"WrongWagerAmount","type":"error"},{"anonymous":false,"inputs":[{"indexed":true,"internalType":"bytes32","name":"battleId","type":"bytes32"},{"indexed":false,"internalType":"address","name":"player1","type":"address"}],"name":"BattleCancelled","type":"event"},{"anonymous":false,"inputs":[{"indexed":true,"internalType":"bytes32","name":"battleId","type":"bytes32"},{"indexed":false,"internalType":"address","name":"player1","type":"address"},{"indexed":false,"internalType":"uint256","name":"wager","type":"uint256"}],"name":"BattleCreated","type":"event"},{"anonymous":false,"inputs":[{"indexed":true,"internalType":"bytes32","name":"battleId","type":"bytes32"},{"indexed":false,"internalType":"address","name":"player2","type":"address"}],"name":"BattleJoined","type":"event"},{"anonymous":false,"inputs":[{"indexed":true,"internalType":"bytes32","name":"battleId","type":"bytes32"},{"indexed":false,"internalType":"address","name":"winner","type":"address"},{"indexed":false,"internalType":"uint256","name":"payout","type":"uint256"}],"name":"BattleSettled","type":"event"},{"inputs":[],"name":"admin","outputs":[{"internalType":"address","name":"","type":"address"}],"stateMutability":"view","type":"function"},{"inputs":[{"internalType":"bytes32","name":"","type":"bytes32"}],"name":"battles","outputs":[{"internalType":"address","name":"player1","type":"address"},{"internalType":"address","name":"player2","type":"address"},{"internalType":"uint256","name":"wager","type":"uint256"},{"internalType":"bool","name":"settled","type":"bool"}],"stateMutability":"view","type":"function"},{"inputs":[{"internalType":"bytes32","name":"battleId","type":"bytes32"}],"name":"cancelBattle","outputs":[],"stateMutability":"nonpayable","type":"function"},{"inputs":[{"internalType":"bytes32","name":"battleId","type":"bytes32"}],"name":"createBattle","outputs":[],"stateMutability":"payable","type":"function"},{"inputs":[],"name":"feePercent","outputs":[{"internalType":"uint256","name":"","type":"uint256"}],"stateMutability":"view","type":"function"},{"inputs":[{"internalType":"bytes32","name":"battleId","type":"bytes32"}],"name":"getBattle","outputs":[{"internalType":"address","name":"player1","type":"address"},{"internalType":"address","name":"player2","type":"address"},{"internalType":"uint256","name":"wager","type":"uint256"},{"internalType":"bool","name":"settled","type":"bool"}],"stateMutability":"view","type":"function"},{"inputs":[{"internalType":"bytes32","name":"battleId","type":"bytes32"}],"name":"joinBattle","outputs":[],"stateMutability":"payable","type":"function"},{"inputs":[{"internalType":"uint256","name":"newFeePercent","type":"uint256"}],"name":"setFeePercent","outputs":[],"stateMutability":"nonpayable","type":"function"},{"inputs":[{"internalType":"bytes32","name":"battleId","type":"bytes32"},{"internalType":"address","name":"winner","type":"address"}],"name":"settleBattle","outputs":[],"stateMutability":"nonpayable","type":"function"},{"inputs":[{"internalType":"address","name":"newAdmin","type":"address"}],"name":"transferAdmin","outputs":[],"stateMutability":"nonpayable","type":"function"},{"inputs":[],"name":"withdraw","outputs":[],"stateMutability":"nonpayable","type":"function"}],"evm":{"bytecode":{"linkReferences":{},"object":"6080604052600560025534801561001557600080fd5b506001600081905580546001600160a01b03191633179055610b088061003c6000396000f3fe60806040526004361061009c5760003560e01c806378547e6c1161006457806378547e6c146101b45780637ce3489b146102085780637fd6f15c14610228578063803da9c31461024c578063ae1fec901461026c578063f851a4401461027f57600080fd5b80633ccfd60b146100a157806343cc2213146100b857806361fa9d961461016157806367fcfe6b1461017457806375829def14610194575b600080fd5b3480156100ad57600080fd5b506100b66102b7565b005b3480156100c457600080fd5b5061012f6100d33660046109e7565b600090815260036020818152604092839020835160808101855281546001600160a01b0390811680835260018401549091169382018490526002830154958201869052919093015460ff16151560609093018390529390929190565b604080516001600160a01b03958616815294909316602085015291830152151560608201526080015b60405180910390f35b6100b661016f3660046109e7565b61037d565b34801561018057600080fd5b506100b661018f366004610a1c565b61048f565b3480156101a057600080fd5b506100b66101af366004610a48565b610684565b3480156101c057600080fd5b5061012f6101cf3660046109e7565b600360208190526000918252604090912080546001820154600283015492909301546001600160a01b0391821693909116919060ff1684565b34801561021457600080fd5b506100b66102233660046109e7565b6106f8565b34801561023457600080fd5b5061023e60025481565b604051908152602001610158565b34801561025857600080fd5b506100b66102673660046109e7565b61074a565b6100b661027a3660046109e7565b6108ad565b34801561028b57600080fd5b5060015461029f906001600160a01b031681565b6040516001600160a01b039091168152602001610158565b6001546001600160a01b031633146102e257604051634755657960e01b815260040160405180910390fd5b47600081900361030557604051636165515360e11b815260040160405180910390fd5b6001546040516000916001600160a01b03169083908381818185875af1925050503d8060008114610352576040519150601f19603f3d011682016040523d82523d6000602084013e610357565b606091505b5050905080610379576040516312171d8360e31b815260040160405180910390fd5b5050565b6103856109bd565b600081815260036020526040902080546001600160a01b03166103bb576040516314d2184960e01b815260040160405180910390fd5b60018101546001600160a01b0316156103e75760405163f10d6a4d60e01b815260040160405180910390fd5b8060020154341461040b5760405163108f37ab60e11b815260040160405180910390fd5b80546001600160a01b031633036104355760405163050c8fd560e01b815260040160405180910390fd5b6001810180546001600160a01b0319163390811790915560405190815282907f8a5f2b632acea1d38073e5d2bb6fb6c171d01c374b6c6d6c3bfe152b2adc35919060200160405180910390a25061048c6001600055565b50565b6001546001600160a01b031633146104ba57604051634755657960e01b815260040160405180910390fd5b6104c26109bd565b60008281526003602081905260409091209081015460ff16156104f75760405162560ff960e81b815260040160405180910390fd5b60018101546001600160a01b03166105225760405163c8c1c68b60e01b815260040160405180910390fd5b80546001600160a01b0383811691161480159061054f575060018101546001600160a01b03838116911614155b1561056d576040516393a5f3c760e01b815260040160405180910390fd5b60038101805460ff1916600117905560028082015460009161058f9190610a80565b905060006064600254836105a39190610a80565b6105ad9190610a9d565b905060006105bb8284610abf565b90506000856001600160a01b03168260405160006040518083038185875af1925050503d806000811461060a576040519150601f19603f3d011682016040523d82523d6000602084013e61060f565b606091505b5050905080610631576040516312171d8360e31b815260040160405180910390fd5b604080516001600160a01b03881681526020810184905288917fe00024c5e26ccf75ca6640782d60c4b08df8a8a58661e19fc428ccf08bfab8c9910160405180910390a250505050506103796001600055565b6001546001600160a01b031633146106af57604051634755657960e01b815260040160405180910390fd5b6001600160a01b0381166106d65760405163e6c4247b60e01b815260040160405180910390fd5b600180546001600160a01b0319166001600160a01b0392909216919091179055565b6001546001600160a01b0316331461072357604051634755657960e01b815260040160405180910390fd5b60148111156107455760405163cd4e616760e01b815260040160405180910390fd5b600255565b6107526109bd565b600081815260036020526040902080546001600160a01b0316331461078a576040516308f78f9960e31b815260040160405180910390fd5b60018101546001600160a01b0316156107b557604051621d934160e11b815260040160405180910390fd5b600381015460ff16156107da5760405162560ff960e81b815260040160405180910390fd5b60038101805460ff19166001179055805460028201546040516000926001600160a01b031691908381818185875af1925050503d8060008114610839576040519150601f19603f3d011682016040523d82523d6000602084013e61083e565b606091505b5050905080610860576040516312171d8360e31b815260040160405180910390fd5b81546040516001600160a01b03909116815283907fcb9efe3dee7d10a1ce7248d3bb4e58134ae02576d3439448ed856cc3373e17a39060200160405180910390a2505061048c6001600055565b346000036108ce5760405163e1df4f5f60e01b815260040160405180910390fd5b6000818152600360205260409020546001600160a01b031615610904576040516320fd51ad60e11b815260040160405180910390fd5b6040805160808101825233808252600060208084018281523485870181815260608701858152898652600380865295899020975188546001600160a01b03199081166001600160a01b03928316178a55945160018a018054909616911617909355516002870155905194909201805460ff19169415159490941790935583519182529181019190915282917fc8d385159427d914f195864b75cc32a525fe2bad215978234bfbcb8b5265f107910160405180910390a250565b6002600054036109e057604051633ee5aeb560e01b815260040160405180910390fd5b6002600055565b6000602082840312156109f957600080fd5b5035919050565b80356001600160a01b0381168114610a1757600080fd5b919050565b60008060408385031215610a2f57600080fd5b82359150610a3f60208401610a00565b90509250929050565b600060208284031215610a5a57600080fd5b610a6382610a00565b9392505050565b634e487b7160e01b600052601160045260246000fd5b8082028115828204841417610a9757610a97610a6a565b92915050565b600082610aba57634e487b7160e01b600052601260045260246000fd5b500490565b81810381811115610a9757610a97610a6a56fea2646970667358221220aa4d78bc20a13c996b79b8bf16df2e408fd88ca587c81b497e27fdaf550511fc64736f6c63430008140033","opcodes":"PUSH1 0x80 PUSH1 0x40 MSTORE PUSH1 0x5 PUSH1 0x2 SSTORE CALLVALUE DUP1 ISZERO PUSH2 0x15 JUMPI PUSH1 0x0 DUP1 REVERT JUMPDEST POP PUSH1 0x1 PUSH1 0x0 DUP2 SWAP1 SSTORE DUP1 SLOAD PUSH1 0x1 PUSH1 0x1 PUSH1 0xA0 SHL SUB NOT AND CALLER OR SWAP1 SSTORE PUSH2 0xB08 DUP1 PUSH2 0x3C PUSH1 0x0 CODECOPY PUSH1 0x0 RETURN INVALID PUSH1 0x80 PUSH1 0x40 MSTORE PUSH1 0x4 CALLDATASIZE LT PUSH2 0x9C JUMPI PUSH1 0x0 CALLDATALOAD PUSH1 0xE0 SHR DUP1 PUSH4 0x78547E6C GT PUSH2 0x64 JUMPI DUP1 PUSH4 0x78547E6C EQ PUSH2 0x1B4 JUMPI DUP1 PUSH4 0x7CE3489B EQ PUSH2 0x208 JUMPI DUP1 PUSH4 0x7FD6F15C EQ PUSH2 0x228 JUMPI DUP1 PUSH4 0x803DA9C3 EQ PUSH2 0x24C JUMPI DUP1 PUSH4 0xAE1FEC90 EQ PUSH2 0x26C JUMPI DUP1 PUSH4 0xF851A440 EQ PUSH2 0x27F JUMPI PUSH1 0x0 DUP1 REVERT JUMPDEST DUP1 PUSH4 0x3CCFD60B EQ PUSH2 0xA1 JUMPI DUP1 PUSH4 0x43CC2213 EQ PUSH2 0xB8 JUMPI DUP1 PUSH4 0x61FA9D96 EQ PUSH2 0x161 JUMPI DUP1 PUSH4 0x67FCFE6B EQ PUSH2 0x174 JUMPI DUP1 PUSH4 0x75829DEF EQ PUSH2 0x194 JUMPI JUMPDEST PUSH1 0x0 DUP1 REVERT JUMPDEST CALLVALUE DUP1 ISZERO PUSH2 0xAD JUMPI PUSH1 0x0 DUP1 REVERT JUMPDEST POP PUSH2 0xB6 PUSH2 0x2B7 JUMP JUMPDEST STOP JUMPDEST CALLVALUE DUP1 ISZERO PUSH2 0xC4 JUMPI PUSH1 0x0 DUP1 REVERT JUMPDEST POP PUSH2 0x12F PUSH2 0xD3 CALLDATASIZE PUSH1 0x4 PUSH2 0x9E7 JUMP JUMPDEST PUSH1 0x0 SWAP1 DUP2 MSTORE PUSH1 0x3 PUSH1 0x20 DUP2 DUP2 MSTORE PUSH1 0x40 SWAP3 DUP4 SWAP1 KECCAK256 DUP4 MLOAD PUSH1 0x80 DUP2 ADD DUP6 MSTORE DUP2 SLOAD PUSH1 0x1 PUSH1 0x1 PUSH1 0xA0 SHL SUB SWAP1 DUP2 AND DUP1 DUP4 MSTORE PUSH1 0x1 DUP5 ADD SLOAD SWAP1 SWAP2 AND SWAP4 DUP3 ADD DUP5 SWAP1 MSTORE PUSH1 0x2 DUP4 ADD SLOAD SWAP6 DUP3 ADD DUP7 SWAP1 MSTORE SWAP2 SWAP1 SWAP4 ADD SLOAD PUSH1 0xFF AND ISZERO ISZERO PUSH1 0x60 SWAP1 SWAP4 ADD DUP4 SWAP1 MSTORE SWAP4 SWAP1 SWAP3 SWAP2 SWAP1 JUMP JUMPDEST PUSH1 0x40 DUP1 MLOAD PUSH1 0x1 PUSH1 0x1 PUSH1 0xA0 SHL SUB SWAP6 DUP7 AND DUP2 MSTORE SWAP5 SWAP1 SWAP4 AND PUSH1 0x20 DUP6 ADD MSTORE SWAP2 DUP4 ADD MSTORE ISZERO ISZERO PUSH1 0x60 DUP3 ADD MSTORE PUSH1 0x80 ADD JUMPDEST PUSH1 0x40 MLOAD DUP1 SWAP2 SUB SWAP1 RETURN JUMPDEST PUSH2 0xB6 PUSH2 0x16F CALLDATASIZE PUSH1 0x4 PUSH2 0x9E7 JUMP JUMPDEST PUSH2 0x37D JUMP JUMPDEST CALLVALUE DUP1 ISZERO PUSH2 0x180 JUMPI PUSH1 0x0 DUP1 REVERT JUMPDEST POP PUSH2 0xB6 PUSH2 0x18F CALLDATASIZE PUSH1 0x4 PUSH2 0xA1C JUMP JUMPDEST PUSH2 0x48F JUMP JUMPDEST CALLVALUE DUP1 ISZERO PUSH2 0x1A0 JUMPI PUSH1 0x0 DUP1 REVERT JUMPDEST POP PUSH2 0xB6 PUSH2 0x1AF CALLDATASIZE PUSH1 0x4 PUSH2 0xA48 JUMP JUMPDEST PUSH2 0x684 JUMP JUMPDEST CALLVALUE DUP1 ISZERO PUSH2 0x1C0 JUMPI PUSH1 0x0 DUP1 REVERT JUMPDEST POP PUSH2 0x12F PUSH2 0x1CF CALLDATASIZE PUSH1 0x4 PUSH2 0x9E7 JUMP JUMPDEST PUSH1 0x3 PUSH1 0x20 DUP2 SWAP1 MSTORE PUSH1 0x0 SWAP2 DUP3 MSTORE PUSH1 0x40 SWAP1 SWAP2 KECCAK256 DUP1 SLOAD PUSH1 0x1 DUP3 ADD SLOAD PUSH1 0x2 DUP4 ADD SLOAD SWAP3 SWAP1 SWAP4 ADD SLOAD PUSH1 0x1 PUSH1 0x1 PUSH1 0xA0 SHL SUB SWAP2 DUP3 AND SWAP4 SWAP1 SWAP2 AND SWAP2 SWAP1 PUSH1 0xFF AND DUP5 JUMP JUMPDEST CALLVALUE DUP1 ISZERO PUSH2 0x214 JUMPI PUSH1 0x0 DUP1 REVERT JUMPDEST POP PUSH2 0xB6 PUSH2 0x223 CALLDATASIZE PUSH1 0x4 PUSH2 0x9E7 JUMP JUMPDEST PUSH2 0x6F8 JUMP JUMPDEST CALLVALUE DUP1 ISZERO PUSH2 0x234 JUMPI PUSH1 0x0 DUP1 REVERT JUMPDEST POP PUSH2 0x23E PUSH1 0x2 SLOAD DUP2 JUMP JUMPDEST PUSH1 0x40 MLOAD SWAP1 DUP2 MSTORE PUSH1 0x20 ADD PUSH2 0x158 JUMP JUMPDEST CALLVALUE DUP1 ISZERO PUSH2 0x258 JUMPI PUSH1 0x0 DUP1 REVERT JUMPDEST POP PUSH2 0xB6 PUSH2 0x267 CALLDATASIZE PUSH1 0x4 PUSH2 0x9E7 JUMP JUMPDEST PUSH2 0x74A JUMP JUMPDEST PUSH2 0xB6 PUSH2 0x27A CALLDATASIZE PUSH1 0x4 PUSH2 0x9E7 JUMP JUMPDEST PUSH2 0x8AD JUMP JUMPDEST CALLVALUE DUP1 ISZERO PUSH2 0x28B JUMPI PUSH1 0x0 DUP1 REVERT JUMPDEST POP PUSH1 0x1 SLOAD PUSH2 0x29F SWAP1 PUSH1 0x1 PUSH1 0x1 PUSH1 0xA0 SHL SUB AND DUP2 JUMP JUMPDEST PUSH1 0x40 MLOAD PUSH1 0x1 PUSH1 0x1 PUSH1 0xA0 SHL SUB SWAP1 SWAP2 AND DUP2 MSTORE PUSH1 0x20 ADD PUSH2 0x158 JUMP JUMPDEST PUSH1 0x1 SLOAD PUSH1 0x1 PUSH1 0x1 PUSH1 0xA0 SHL SUB AND CALLER EQ PUSH2 0x2E2 JUMPI PUSH1 0x40 MLOAD PUSH4 0x47556579 PUSH1 0xE0 SHL DUP2 MSTORE PUSH1 0x4 ADD PUSH1 0x40 MLOAD DUP1 SWAP2 SUB SWAP1 REVERT JUMPDEST SELFBALANCE PUSH1 0x0 DUP2 SWAP1 SUB PUSH2 0x305 JUMPI PUSH1 0x40 MLOAD PUSH4 0x61655153 PUSH1 0xE1 SHL DUP2 MSTORE PUSH1 0x4 ADD PUSH1 0x40 MLOAD DUP1 SWAP2 SUB SWAP1 REVERT JUMPDEST PUSH1 0x1 SLOAD PUSH1 0x40 MLOAD PUSH1 0x0 SWAP2 PUSH1 0x1 PUSH1 0x1 PUSH1 0xA0 SHL SUB AND SWAP1 DUP4 SWAP1 DUP4 DUP2 DUP2 DUP2 DUP6 DUP8 GAS CALL SWAP3 POP POP POP RETURNDATASIZE DUP1 PUSH1 0x0 DUP2 EQ PUSH2 0x352 JUMPI PUSH1 0x40 MLOAD SWAP2 POP PUSH1 0x1F NOT PUSH1 0x3F RETURNDATASIZE ADD AND DUP3 ADD PUSH1 0x40 MSTORE RETURNDATASIZE DUP3 MSTORE RETURNDATASIZE PUSH1 0x0 PUSH1 0x20 DUP5 ADD RETURNDATACOPY PUSH2 0x357 JUMP JUMPDEST PUSH1 0x60 SWAP2 POP JUMPDEST POP POP SWAP1 POP DUP1 PUSH2 0x379 JUMPI PUSH1 0x40 MLOAD PUSH4 0x12171D83 PUSH1 0xE3 SHL DUP2 MSTORE PUSH1 0x4 ADD PUSH1 0x40 MLOAD DUP1 SWAP2 SUB SWAP1 REVERT JUMPDEST POP POP JUMP JUMPDEST PUSH2 0x385 PUSH2 0x9BD JUMP JUMPDEST PUSH1 0x0 DUP2 DUP2 MSTORE PUSH1 0x3 PUSH1 0x20 MSTORE PUSH1 0x40 SWAP1 KECCAK256 DUP1 SLOAD PUSH1 0x1 PUSH1 0x1 PUSH1 0xA0 SHL SUB AND PUSH2 0x3BB JUMPI PUSH1 0x40 MLOAD PUSH4 0x14D21849 PUSH1 0xE0 SHL DUP2 MSTORE PUSH1 0x4 ADD PUSH1 0x40 MLOAD DUP1 SWAP2 SUB SWAP1 REVERT JUMPDEST PUSH1 0x1 DUP2 ADD SLOAD PUSH1 0x1 PUSH1 0x1 PUSH1 0xA0 SHL SUB AND ISZERO PUSH2 0x3E7 JUMPI PUSH1 0x40 MLOAD PUSH4 0xF10D6A4D PUSH1 0xE0 SHL DUP2 MSTORE PUSH1 0x4 ADD PUSH1 0x40 MLOAD DUP1 SWAP2 SUB SWAP1 REVERT JUMPDEST DUP1 PUSH1 0x2 ADD SLOAD CALLVALUE EQ PUSH2 0x40B JUMPI PUSH1 0x40 MLOAD PUSH4 0x108F37AB PUSH1 0xE1 SHL DUP2 MSTORE PUSH1 0x4 ADD PUSH1 0x40 MLOAD DUP1 SWAP2 SUB SWAP1 REVERT JUMPDEST DUP1 SLOAD PUSH1 0x1 PUSH1 0x1 PUSH1 0xA0 SHL SUB AND CALLER SUB PUSH2 0x435 JUMPI PUSH1 0x40 MLOAD PUSH4 0x50C8FD5 PUSH1 0xE0 SHL DUP2 MSTORE PUSH1 0x4 ADD PUSH1 0x40 MLOAD DUP1 SWAP2 SUB SWAP1 REVERT JUMPDEST PUSH1 0x1 DUP2 ADD DUP1 SLOAD PUSH1 0x1 PUSH1 0x1 PUSH1 0xA0 SHL SUB NOT AND CALLER SWAP1 DUP2 OR SWAP1 SWAP2 SSTORE PUSH1 0x40 MLOAD SWAP1 DUP2 MSTORE DUP3 SWAP1 PUSH32 0x8A5F2B632ACEA1D38073E5D2BB6FB6C171D01C374B6C6D6C3BFE152B2ADC3591 SWAP1 PUSH1 0x20 ADD PUSH1 0x40 MLOAD DUP1 SWAP2 SUB SWAP1 LOG2 POP PUSH2 0x48C PUSH1 0x1 PUSH1 0x0 SSTORE JUMP JUMPDEST POP JUMP JUMPDEST PUSH1 0x1 SLOAD PUSH1 0x1 PUSH1 0x1 PUSH1 0xA0 SHL SUB AND CALLER EQ PUSH2 0x4BA JUMPI PUSH1 0x40 MLOAD PUSH4 0x47556579 PUSH1 0xE0 SHL DUP2 MSTORE PUSH1 0x4 ADD PUSH1 0x40 MLOAD DUP1 SWAP2 SUB SWAP1 REVERT JUMPDEST PUSH2 0x4C2 PUSH2 0x9BD JUMP JUMPDEST PUSH1 0x0 DUP3 DUP2 MSTORE PUSH1 0x3 PUSH1 0x20 DUP2 SWAP1 MSTORE PUSH1 0x40 SWAP1 SWAP2 KECCAK256 SWAP1 DUP2 ADD SLOAD PUSH1 0xFF AND ISZERO PUSH2 0x4F7 JUMPI PUSH1 0x40 MLOAD PUSH3 0x560FF9 PUSH1 0xE8 SHL DUP2 MSTORE PUSH1 0x4 ADD PUSH1 0x40 MLOAD DUP1 SWAP2 SUB SWAP1 REVERT JUMPDEST PUSH1 0x1 DUP2 ADD SLOAD PUSH1 0x1 PUSH1 0x1 PUSH1 0xA0 SHL SUB AND PUSH2 0x522 JUMPI PUSH1 0x40 MLOAD PUSH4 0xC8C1C68B PUSH1 0xE0 SHL DUP2 MSTORE PUSH1 0x4 ADD PUSH1 0x40 MLOAD DUP1 SWAP2 SUB SWAP1 REVERT JUMPDEST DUP1 SLOAD PUSH1 0x1 PUSH1 0x1 PUSH1 0xA0 SHL SUB DUP4 DUP2 AND SWAP2 AND EQ DUP1 ISZERO SWAP1 PUSH2 0x54F JUMPI POP PUSH1 0x1 DUP2 ADD SLOAD PUSH1 0x1 PUSH1 0x1 PUSH1 0xA0 SHL SUB DUP4 DUP2 AND SWAP2 AND EQ ISZERO JUMPDEST ISZERO PUSH2 0x56D JUMPI PUSH1 0x40 MLOAD PUSH4 0x93A5F3C7 PUSH1 0xE0 SHL DUP2 MSTORE PUSH1 0x4 ADD PUSH1 0x40 MLOAD DUP1 SWAP2 SUB SWAP1 REVERT JUMPDEST PUSH1 0x3 DUP2 ADD DUP1 SLOAD PUSH1 0xFF NOT AND PUSH1 0x1 OR SWAP1 SSTORE PUSH1 0x2 DUP1 DUP3 ADD SLOAD PUSH1 0x0 SWAP2 PUSH2 0x58F SWAP2 SWAP1 PUSH2 0xA80 JUMP JUMPDEST SWAP1 POP PUSH1 0x0 PUSH1 0x64 PUSH1 0x2 SLOAD DUP4 PUSH2 0x5A3 SWAP2 SWAP1 PUSH2 0xA80 JUMP JUMPDEST PUSH2 0x5AD SWAP2 SWAP1 PUSH2 0xA9D JUMP JUMPDEST SWAP1 POP PUSH1 0x0 PUSH2 0x5BB DUP3 DUP5 PUSH2 0xABF JUMP JUMPDEST SWAP1 POP PUSH1 0x0 DUP6 PUSH1 0x1 PUSH1 0x1 PUSH1 0xA0 SHL SUB AND DUP3 PUSH1 0x40 MLOAD PUSH1 0x0 PUSH1 0x40 MLOAD DUP1 DUP4 SUB DUP2 DUP6 DUP8 GAS CALL SWAP3 POP POP POP RETURNDATASIZE DUP1 PUSH1 0x0 DUP2 EQ PUSH2 0x60A JUMPI PUSH1 0x40 MLOAD SWAP2 POP PUSH1 0x1F NOT PUSH1 0x3F RETURNDATASIZE ADD AND DUP3 ADD PUSH1 0x40 MSTORE RETURNDATASIZE DUP3 MSTORE RETURNDATASIZE PUSH1 0x0 PUSH1 0x20 DUP5 ADD RETURNDATACOPY PUSH2 0x60F JUMP JUMPDEST PUSH1 0x60 SWAP2 POP JUMPDEST POP POP SWAP1 POP DUP1 PUSH2 0x631 JUMPI PUSH1 0x40 MLOAD PUSH4 0x12171D83 PUSH1 0xE3 SHL DUP2 MSTORE PUSH1 0x4 ADD PUSH1 0x40 MLOAD DUP1 SWAP2 SUB SWAP1 REVERT JUMPDEST PUSH1 0x40 DUP1 MLOAD PUSH1 0x1 PUSH1 0x1 PUSH1 0xA0 SHL SUB DUP9 AND DUP2 MSTORE PUSH1 0x20 DUP2 ADD DUP5 SWAP1 MSTORE DUP9 SWAP2 PUSH32 0xE00024C5E26CCF75CA6640782D60C4B08DF8A8A58661E19FC428CCF08BFAB8C9 SWAP2 ADD PUSH1 0x40 MLOAD DUP1 SWAP2 SUB SWAP1 LOG2 POP POP POP POP POP PUSH2 0x379 PUSH1 0x1 PUSH1 0x0 SSTORE JUMP JUMPDEST PUSH1 0x1 SLOAD PUSH1 0x1 PUSH1 0x1 PUSH1 0xA0 SHL SUB AND CALLER EQ PUSH2 0x6AF JUMPI PUSH1 0x40 MLOAD PUSH4 0x47556579 PUSH1 0xE0 SHL DUP2 MSTORE PUSH1 0x4 ADD PUSH1 0x40 MLOAD DUP1 SWAP2 SUB SWAP1 REVERT JUMPDEST PUSH1 0x1 PUSH1 0x1 PUSH1 0xA0 SHL SUB DUP2 AND PUSH2 0x6D6 JUMPI PUSH1 0x40 MLOAD PUSH4 0xE6C4247B PUSH1 0xE0 SHL DUP2 MSTORE PUSH1 0x4 ADD PUSH1 0x40 MLOAD DUP1 SWAP2 SUB SWAP1 REVERT JUMPDEST PUSH1 0x1 DUP1 SLOAD PUSH1 0x1 PUSH1 0x1 PUSH1 0xA0 SHL SUB NOT AND PUSH1 0x1 PUSH1 0x1 PUSH1 0xA0 SHL SUB SWAP3 SWAP1 SWAP3 AND SWAP2 SWAP1 SWAP2 OR SWAP1 SSTORE JUMP JUMPDEST PUSH1 0x1 SLOAD PUSH1 0x1 PUSH1 0x1 PUSH1 0xA0 SHL SUB AND CALLER EQ PUSH2 0x723 JUMPI PUSH1 0x40 MLOAD PUSH4 0x47556579 PUSH1 0xE0 SHL DUP2 MSTORE PUSH1 0x4 ADD PUSH1 0x40 MLOAD DUP1 SWAP2 SUB SWAP1 REVERT JUMPDEST PUSH1 0x14 DUP2 GT ISZERO PUSH2 0x745 JUMPI PUSH1 0x40 MLOAD PUSH4 0xCD4E6167 PUSH1 0xE0 SHL DUP2 MSTORE PUSH1 0x4 ADD PUSH1 0x40 MLOAD DUP1 SWAP2 SUB SWAP1 REVERT JUMPDEST PUSH1 0x2 SSTORE JUMP JUMPDEST PUSH2 0x752 PUSH2 0x9BD JUMP JUMPDEST PUSH1 0x0 DUP2 DUP2 MSTORE PUSH1 0x3 PUSH1 0x20 MSTORE PUSH1 0x40 SWAP1 KECCAK256 DUP1 SLOAD PUSH1 0x1 PUSH1 0x1 PUSH1 0xA0 SHL SUB AND CALLER EQ PUSH2 0x78A JUMPI PUSH1 0x40 MLOAD PUSH4 0x8F78F99 PUSH1 0xE3 SHL DUP2 MSTORE PUSH1 0x4 ADD PUSH1 0x40 MLOAD DUP1 SWAP2 SUB SWAP1 REVERT JUMPDEST PUSH1 0x1 DUP2 ADD SLOAD PUSH1 0x1 PUSH1 0x1 PUSH1 0xA0 SHL SUB AND ISZERO PUSH2 0x7B5 JUMPI PUSH1 0x40 MLOAD PUSH3 0x1D9341 PUSH1 0xE1 SHL DUP2 MSTORE PUSH1 0x4 ADD PUSH1 0x40 MLOAD DUP1 SWAP2 SUB SWAP1 REVERT JUMPDEST PUSH1 0x3 DUP2 ADD SLOAD PUSH1 0xFF AND ISZERO PUSH2 0x7DA JUMPI PUSH1 0x40 MLOAD PUSH3 0x560FF9 PUSH1 0xE8 SHL DUP2 MSTORE PUSH1 0x4 ADD PUSH1 0x40 MLOAD DUP1 SWAP2 SUB SWAP1 REVERT JUMPDEST PUSH1 0x3 DUP2 ADD DUP1 SLOAD PUSH1 0xFF NOT AND PUSH1 0x1 OR SWAP1 SSTORE DUP1 SLOAD PUSH1 0x2 DUP3 ADD SLOAD PUSH1 0x40 MLOAD PUSH1 0x0 SWAP3 PUSH1 0x1 PUSH1 0x1 PUSH1 0xA0 SHL SUB AND SWAP2 SWAP1 DUP4 DUP2 DUP2 DUP2 DUP6 DUP8 GAS CALL SWAP3 POP POP POP RETURNDATASIZE DUP1 PUSH1 0x0 DUP2 EQ PUSH2 0x839 JUMPI PUSH1 0x40 MLOAD SWAP2 POP PUSH1 0x1F NOT PUSH1 0x3F RETURNDATASIZE ADD AND DUP3 ADD PUSH1 0x40 MSTORE RETURNDATASIZE DUP3 MSTORE RETURNDATASIZE PUSH1 0x0 PUSH1 0x20 DUP5 ADD RETURNDATACOPY PUSH2 0x83E JUMP JUMPDEST PUSH1 0x60 SWAP2 POP JUMPDEST POP POP SWAP1 POP DUP1 PUSH2 0x860 JUMPI PUSH1 0x40 MLOAD PUSH4 0x12171D83 PUSH1 0xE3 SHL DUP2 MSTORE PUSH1 0x4 ADD PUSH1 0x40 MLOAD DUP1 SWAP2 SUB SWAP1 REVERT JUMPDEST DUP2 SLOAD PUSH1 0x40 MLOAD PUSH1 0x1 PUSH1 0x1 PUSH1 0xA0 SHL SUB SWAP1 SWAP2 AND DUP2 MSTORE DUP4 SWAP1 PUSH32 0xCB9EFE3DEE7D10A1CE7248D3BB4E58134AE02576D3439448ED856CC3373E17A3 SWAP1 PUSH1 0x20 ADD PUSH1 0x40 MLOAD DUP1 SWAP2 SUB SWAP1 LOG2 POP POP PUSH2 0x48C PUSH1 0x1 PUSH1 0x0 SSTORE JUMP JUMPDEST CALLVALUE PUSH1 0x0 SUB PUSH2 0x8CE JUMPI PUSH1 0x40 MLOAD PUSH4 0xE1DF4F5F PUSH1 0xE0 SHL DUP2 MSTORE PUSH1 0x4 ADD PUSH1 0x40 MLOAD DUP1 SWAP2 SUB SWAP1 REVERT JUMPDEST PUSH1 0x0 DUP2 DUP2 MSTORE PUSH1 0x3 PUSH1 0x20 MSTORE PUSH1 0x40 SWAP1 KECCAK256 SLOAD PUSH1 0x1 PUSH1 0x1 PUSH1 0xA0 SHL SUB AND ISZERO PUSH2 0x904 JUMPI PUSH1 0x40 MLOAD PUSH4 0x20FD51AD PUSH1 0xE1 SHL DUP2 MSTORE PUSH1 0x4 ADD PUSH1 0x40 MLOAD DUP1 SWAP2 SUB SWAP1 REVERT JUMPDEST PUSH1 0x40 DUP1 MLOAD PUSH1 0x80 DUP2 ADD DUP3 MSTORE CALLER DUP1 DUP3 MSTORE PUSH1 0x0 PUSH1 0x20 DUP1 DUP5 ADD DUP3 DUP2 MSTORE CALLVALUE DUP6 DUP8 ADD DUP2 DUP2 MSTORE PUSH1 0x60 DUP8 ADD DUP6 DUP2 MSTORE DUP10 DUP7 MSTORE PUSH1 0x3 DUP1 DUP7 MSTORE SWAP6 DUP10 SWAP1 KECCAK256 SWAP8 MLOAD DUP9 SLOAD PUSH1 0x1 PUSH1 0x1 PUSH1 0xA0 SHL SUB NOT SWAP1 DUP2 AND PUSH1 0x1 PUSH1 0x1 PUSH1 0xA0 SHL SUB SWAP3 DUP4 AND OR DUP11 SSTORE SWAP5 MLOAD PUSH1 0x1 DUP11 ADD DUP1 SLOAD SWAP1 SWAP7 AND SWAP2 AND OR SWAP1 SWAP4 SSTORE MLOAD PUSH1 0x2 DUP8 ADD SSTORE SWAP1 MLOAD SWAP5 SWAP1 SWAP3 ADD DUP1 SLOAD PUSH1 0xFF NOT AND SWAP5 ISZERO ISZERO SWAP5 SWAP1 SWAP5 OR SWAP1 SWAP4 SSTORE DUP4 MLOAD SWAP2 DUP3 MSTORE SWAP2 DUP2 ADD SWAP2 SWAP1 SWAP2 MSTORE DUP3 SWAP2 PUSH32 0xC8D385159427D914F195864B75CC32A525FE2BAD215978234BFBCB8B5265F107 SWAP2 ADD PUSH1 0x40 MLOAD DUP1 SWAP2 SUB SWAP1 LOG2 POP JUMP JUMPDEST PUSH1 0x2 PUSH1 0x0 SLOAD SUB PUSH2 0x9E0 JUMPI PUSH1 0x40 MLOAD PUSH4 0x3EE5AEB5 PUSH1 0xE0 SHL DUP2 MSTORE PUSH1 0x4 ADD PUSH1 0x40 MLOAD DUP1 SWAP2 SUB SWAP1 REVERT JUMPDEST PUSH1 0x2 PUSH1 0x0 SSTORE JUMP JUMPDEST PUSH1 0x0 PUSH1 0x20 DUP3 DUP5 SUB SLT ISZERO PUSH2 0x9F9 JUMPI PUSH1 0x0 DUP1 REVERT JUMPDEST POP CALLDATALOAD SWAP2 SWAP1 POP JUMP JUMPDEST DUP1 CALLDATALOAD PUSH1 0x1 PUSH1 0x1 PUSH1 0xA0 SHL SUB DUP2 AND DUP2 EQ PUSH2 0xA17 JUMPI PUSH1 0x0 DUP1 REVERT JUMPDEST SWAP2 SWAP1 POP JUMP JUMPDEST PUSH1 0x0 DUP1 PUSH1 0x40 DUP4 DUP6 SUB SLT ISZERO PUSH2 0xA2F JUMPI PUSH1 0x0 DUP1 REVERT JUMPDEST DUP3 CALLDATALOAD SWAP2 POP PUSH2 0xA3F PUSH1 0x20 DUP5 ADD PUSH2 0xA00 JUMP JUMPDEST SWAP1 POP SWAP3 POP SWAP3 SWAP1 POP JUMP JUMPDEST PUSH1 0x0 PUSH1 0x20 DUP3 DUP5 SUB SLT ISZERO PUSH2 0xA5A JUMPI PUSH1 0x0 DUP1 REVERT JUMPDEST PUSH2 0xA63 DUP3 PUSH2 0xA00 JUMP JUMPDEST SWAP4 SWAP3 POP POP POP JUMP JUMPDEST PUSH4 0x4E487B71 PUSH1 0xE0 SHL PUSH1 0x0 MSTORE PUSH1 0x11 PUSH1 0x4 MSTORE PUSH1 0x24 PUSH1 0x0 REVERT JUMPDEST DUP1 DUP3 MUL DUP2 ISZERO DUP3 DUP3 DIV DUP5 EQ OR PUSH2 0xA97 JUMPI PUSH2 0xA97 PUSH2 0xA6A JUMP JUMPDEST SWAP3 SWAP2 POP POP JUMP JUMPDEST PUSH1 0x0 DUP3 PUSH2 0xABA JUMPI PUSH4 0x4E487B71 PUSH1 0xE0 SHL PUSH1 0x0 MSTORE PUSH1 0x12 PUSH1 0x4 MSTORE PUSH1 0x24 PUSH1 0x0 REVERT JUMPDEST POP DIV SWAP1 JUMP JUMPDEST DUP2 DUP2 SUB DUP2 DUP2 GT ISZERO PUSH2 0xA97 JUMPI PUSH2 0xA97 PUSH2 0xA6A JUMP INVALID LOG2 PUSH5 0x6970667358 0x22 SLT KECCAK256 0xAA 0x4D PUSH25 0xBC20A13C996B79B8BF16DF2E408FD88CA587C81B497E27FDAF SSTORE SDIV GT 0xFC PUSH5 0x736F6C6343 STOP ADDMOD EQ STOP CALLER "},"methodIdentifiers":{"admin()":"f851a440","battles(bytes32)":"78547e6c","cancelBattle(bytes32)":"803da9c3","createBattle(bytes32)":"ae1fec90","feePercent()":"7fd6f15c","getBattle(bytes32)":"43cc2213","joinBattle(bytes32)":"61fa9d96","setFeePercent(uint256)":"7ce3489b","settleBattle(bytes32,address)":"67fcfe6b","transferAdmin(address)":"75829def","withdraw()":"3ccfd60b"}}}}}