{
  "_format": "hh-sol-artifact-1",
  "contractName": "AutoMonEscrow",
  "sourceName": "contracts/AutoMonEscrow.sol",
  "abi": [
    {
      "inputs": [],
      "stateMutability": "nonpayable",
      "type": "constructor"
    },
    {
      "inputs": [],
      "name": "AlreadyJoined",
      "type": "error"
    },
    {
      "inputs": [],
      "name": "AlreadySettled",
      "type": "error"
    },
    {
      "inputs": [],
      "name": "BattleAlreadyExists",
      "type": "error"
    },
    {
      "inputs": [],
      "name": "BattleFull",
      "type": "error"
    },
    {
      "inputs": [],
      "name": "BattleNotFound",
      "type": "error"
    },
    {
      "inputs": [],
      "name": "BattleNotStarted",
      "type": "error"
    },
    {
      "inputs": [],
      "name": "CannotJoinOwnBattle",
      "type": "error"
    },
    {
      "inputs": [],
      "name": "FeeTooHigh",
      "type": "error"
    },
    {
      "inputs": [],
      "name": "InvalidAddress",
      "type": "error"
    },
    {
      "inputs": [],
      "name": "InvalidWinner",
      "type": "error"
    },
    {
      "inputs": [],
      "name": "MustWagerSomething",
      "type": "error"
    },
    {
      "inputs": [],
      "name": "NoBalance",
      "type": "error"
    },
    {
      "inputs": [],
      "name": "OnlyAdmin",
      "type": "error"
    },
    {
      "inputs": [],
      "name": "OnlyCreator",
      "type": "error"
    },
    {
      "inputs": [],
      "name": "ReentrancyGuardReentrantCall",
      "type": "error"
    },
    {
      "inputs": [],
      "name": "TransferFailed",
      "type": "error"
    },
    {
      "inputs": [],
      "name": "WrongWagerAmount",
      "type": "error"
    },
    {
      "anonymous": false,
      "inputs": [
        {
          "indexed": true,
          "internalType": "bytes32",
          "name": "battleId",
          "type": "bytes32"
        },
        {
          "indexed": false,
          "internalType": "address",
          "name": "player1",
          "type": "address"
        }
      ],
      "name": "BattleCancelled",
      "type": "event"
    },
    {
      "anonymous": false,
      "inputs": [
        {
          "indexed": true,
          "internalType": "bytes32",
          "name": "battleId",
          "type": "bytes32"
        },
        {
          "indexed": false,
          "internalType": "address",
          "name": "player1",
          "type": "address"
        },
        {
          "indexed": false,
          "internalType": "uint256",
          "name": "wager",
          "type": "uint256"
        }
      ],
      "name": "BattleCreated",
      "type": "event"
    },
    {
      "anonymous": false,
      "inputs": [
        {
          "indexed": true,
          "internalType": "bytes32",
          "name": "battleId",
          "type": "bytes32"
        },
        {
          "indexed": false,
          "internalType": "address",
          "name": "player2",
          "type": "address"
        }
      ],
      "name": "BattleJoined",
      "type": "event"
    },
    {
      "anonymous": false,
      "inputs": [
        {
          "indexed": true,
          "internalType": "bytes32",
          "name": "battleId",
          "type": "bytes32"
        },
        {
          "indexed": false,
          "internalType": "address",
          "name": "winner",
          "type": "address"
        },
        {
          "indexed": false,
          "internalType": "uint256",
          "name": "payout",
          "type": "uint256"
        }
      ],
      "name": "BattleSettled",
      "type": "event"
    },
    {
      "inputs": [],
      "name": "admin",
      "outputs": [
        {
          "internalType": "address",
          "name": "",
          "type": "address"
        }
      ],
      "stateMutability": "view",
      "type": "function"
    },
    {
      "inputs": [
        {
          "internalType": "bytes32",
          "name": "",
          "type": "bytes32"
        }
      ],
      "name": "battles",
      "outputs": [
        {
          "internalType": "address",
          "name": "player1",
          "type": "address"
        },
        {
          "internalType": "address",
          "name": "player2",
          "type": "address"
        },
        {
          "internalType": "uint256",
          "name": "wager",
          "type": "uint256"
        },
        {
          "internalType": "bool",
          "name": "settled",
          "type": "bool"
        }
      ],
      "stateMutability": "view",
      "type": "function"
    },
    {
      "inputs": [
        {
          "internalType": "bytes32",
          "name": "battleId",
          "type": "bytes32"
        }
      ],
      "name": "cancelBattle",
      "outputs": [],
      "stateMutability": "nonpayable",
      "type": "function"
    },
    {
      "inputs": [
        {
          "internalType": "bytes32",
          "name": "battleId",
          "type": "bytes32"
        }
      ],
      "name": "createBattle",
      "outputs": [],
      "stateMutability": "payable",
      "type": "function"
    },
    {
      "inputs": [],
      "name": "feePercent",
      "outputs": [
        {
          "internalType": "uint256",
          "name": "",
          "type": "uint256"
        }
      ],
      "stateMutability": "view",
      "type": "function"
    },
    {
      "inputs": [
        {
          "internalType": "bytes32",
          "name": "battleId",
          "type": "bytes32"
        }
      ],
      "name": "getBattle",
      "outputs": [
        {
          "internalType": "address",
          "name": "player1",
          "type": "address"
        },
        {
          "internalType": "address",
          "name": "player2",
          "type": "address"
        },
        {
          "internalType": "uint256",
          "name": "wager",
          "type": "uint256"
        },
        {
          "internalType": "bool",
          "name": "settled",
          "type": "bool"
        }
      ],
      "stateMutability": "view",
      "type": "function"
    },
    {
      "inputs": [
        {
          "internalType": "bytes32",
          "name": "battleId",
          "type": "bytes32"
        }
      ],
      "name": "joinBattle",
      "outputs": [],
      "stateMutability": "payable",
      "type": "function"
    },
    {
      "inputs": [
        {
          "internalType": "uint256",
          "name": "newFeePercent",
          "type": "uint256"
        }
      ],
      "name": "setFeePercent",
      "outputs": [],
      "stateMutability": "nonpayable",
      "type": "function"
    },
    {
      "inputs": [
        {
          "internalType": "bytes32",
          "name": "battleId",
          "type": "bytes32"
        },
        {
          "internalType": "address",
          "name": "winner",
          "type": "address"
        }
      ],
      "name": "settleBattle",
      "outputs": [],
      "stateMutability": "nonpayable",
      "type": "function"
    },
    {
      "inputs": [
        {
          "internalType": "address",
          "name": "newAdmin",
          "type": "address"
        }
      ],
      "name": "transferAdmin",
      "outputs": [],
      "stateMutability": "nonpayable",
      "type": "function"
    },
    {
      "inputs": [],
      "name": "withdraw",
      "outputs": [],
      "stateMutability": "nonpayable",
      "type": "function"
    }
  ],
  "bytecode": "0x6080604052600560025534801561001557600080fd5b506001600081905580546001600160a01b03191633179055610b088061003c6000396000f3fe60806040526004361061009c5760003560e01c806378547e6c1161006457806378547e6c146101b45780637ce3489b146102085780637fd6f15c14610228578063803da9c31461024c578063ae1fec901461026c578063f851a4401461027f57600080fd5b80633ccfd60b146100a157806343cc2213146100b857806361fa9d961461016157806367fcfe6b1461017457806375829def14610194575b600080fd5b3480156100ad57600080fd5b506100b66102b7565b005b3480156100c457600080fd5b5061012f6100d33660046109e7565b600090815260036020818152604092839020835160808101855281546001600160a01b0390811680835260018401549091169382018490526002830154958201869052919093015460ff16151560609093018390529390929190565b604080516001600160a01b03958616815294909316602085015291830152151560608201526080015b60405180910390f35b6100b661016f3660046109e7565b61037d565b34801561018057600080fd5b506100b661018f366004610a1c565b61048f565b3480156101a057600080fd5b506100b66101af366004610a48565b610684565b3480156101c057600080fd5b5061012f6101cf3660046109e7565b600360208190526000918252604090912080546001820154600283015492909301546001600160a01b0391821693909116919060ff1684565b34801561021457600080fd5b506100b66102233660046109e7565b6106f8565b34801561023457600080fd5b5061023e60025481565b604051908152602001610158565b34801561025857600080fd5b506100b66102673660046109e7565b61074a565b6100b661027a3660046109e7565b6108ad565b34801561028b57600080fd5b5060015461029f906001600160a01b031681565b6040516001600160a01b039091168152602001610158565b6001546001600160a01b031633146102e257604051634755657960e01b815260040160405180910390fd5b47600081900361030557604051636165515360e11b815260040160405180910390fd5b6001546040516000916001600160a01b03169083908381818185875af1925050503d8060008114610352576040519150601f19603f3d011682016040523d82523d6000602084013e610357565b606091505b5050905080610379576040516312171d8360e31b815260040160405180910390fd5b5050565b6103856109bd565b600081815260036020526040902080546001600160a01b03166103bb576040516314d2184960e01b815260040160405180910390fd5b60018101546001600160a01b0316156103e75760405163f10d6a4d60e01b815260040160405180910390fd5b8060020154341461040b5760405163108f37ab60e11b815260040160405180910390fd5b80546001600160a01b031633036104355760405163050c8fd560e01b815260040160405180910390fd5b6001810180546001600160a01b0319163390811790915560405190815282907f8a5f2b632acea1d38073e5d2bb6fb6c171d01c374b6c6d6c3bfe152b2adc35919060200160405180910390a25061048c6001600055565b50565b6001546001600160a01b031633146104ba57604051634755657960e01b815260040160405180910390fd5b6104c26109bd565b60008281526003602081905260409091209081015460ff16156104f75760405162560ff960e81b815260040160405180910390fd5b60018101546001600160a01b03166105225760405163c8c1c68b60e01b815260040160405180910390fd5b80546001600160a01b0383811691161480159061054f575060018101546001600160a01b03838116911614155b1561056d576040516393a5f3c760e01b815260040160405180910390fd5b60038101805460ff1916600117905560028082015460009161058f9190610a80565b905060006064600254836105a39190610a80565b6105ad9190610a9d565b905060006105bb8284610abf565b90506000856001600160a01b03168260405160006040518083038185875af1925050503d806000811461060a576040519150601f19603f3d011682016040523d82523d6000602084013e61060f565b606091505b5050905080610631576040516312171d8360e31b815260040160405180910390fd5b604080516001600160a01b03881681526020810184905288917fe00024c5e26ccf75ca6640782d60c4b08df8a8a58661e19fc428ccf08bfab8c9910160405180910390a250505050506103796001600055565b6001546001600160a01b031633146106af57604051634755657960e01b815260040160405180910390fd5b6001600160a01b0381166106d65760405163e6c4247b60e01b815260040160405180910390fd5b600180546001600160a01b0319166001600160a01b0392909216919091179055565b6001546001600160a01b0316331461072357604051634755657960e01b815260040160405180910390fd5b60148111156107455760405163cd4e616760e01b815260040160405180910390fd5b600255565b6107526109bd565b600081815260036020526040902080546001600160a01b0316331461078a576040516308f78f9960e31b815260040160405180910390fd5b60018101546001600160a01b0316156107b557604051621d934160e11b815260040160405180910390fd5b600381015460ff16156107da5760405162560ff960e81b815260040160405180910390fd5b60038101805460ff19166001179055805460028201546040516000926001600160a01b031691908381818185875af1925050503d8060008114610839576040519150601f19603f3d011682016040523d82523d6000602084013e61083e565b606091505b5050905080610860576040516312171d8360e31b815260040160405180910390fd5b81546040516001600160a01b03909116815283907fcb9efe3dee7d10a1ce7248d3bb4e58134ae02576d3439448ed856cc3373e17a39060200160405180910390a2505061048c6001600055565b346000036108ce5760405163e1df4f5f60e01b815260040160405180910390fd5b6000818152600360205260409020546001600160a01b031615610904576040516320fd51ad60e11b815260040160405180910390fd5b6040805160808101825233808252600060208084018281523485870181815260608701858152898652600380865295899020975188546001600160a01b03199081166001600160a01b03928316178a55945160018a018054909616911617909355516002870155905194909201805460ff19169415159490941790935583519182529181019190915282917fc8d385159427d914f195864b75cc32a525fe2bad215978234bfbcb8b5265f107910160405180910390a250565b6002600054036109e057604051633ee5aeb560e01b815260040160405180910390fd5b6002600055565b6000602082840312156109f957600080fd5b5035919050565b80356001600160a01b0381168114610a1757600080fd5b919050565b60008060408385031215610a2f57600080fd5b82359150610a3f60208401610a00565b90509250929050565b600060208284031215610a5a57600080fd5b610a6382610a00565b9392505050565b634e487b7160e01b600052601160045260246000fd5b8082028115828204841417610a9757610a97610a6a565b92915050565b600082610aba57634e487b7160e01b600052601260045260246000fd5b500490565b81810381811115610a9757610a97610a6a56fea2646970667358221220aa4d78bc20a13c996b79b8bf16df2e408fd88ca587c81b497e27fdaf550511fc64736f6c63430008140033",
  "linkReferences": {},
  "deployedLinkReferences": {}
}