{
  "_format": "hh-sol-artifact-1",
  "contractName": "AutoMonNFT",
  "sourceName": "contracts/AutoMonNFT.sol",
  "abi": [
    {
      "inputs": [
        {
          "internalType": "string",
          "name": "_baseURI",
          "type": "string"
        }
      ],
      "stateMutability": "nonpayable",
      "type": "constructor"
    },
    {
      "inputs": [
        {
          "internalType": "address",
          "name": "sender",
          "type": "address"
        },
        {
          "internalType": "uint256",
          "name": "tokenId",
          "type": "uint256"
        },
        {
          "internalType": "address",
          "name": "owner",
          "type": "address"
        }
      ],
      "name": "ERC721IncorrectOwner",
      "type": "error"
    },
    {
      "inputs": [
        {
          "internalType": "address",
          "name": "operator",
          "type": "address"
        },
        {
          "internalType": "uint256",
          "name": "tokenId",
          "type": "uint256"
        }
      ],
      "name": "ERC721InsufficientApproval",
      "type": "error"
    },
    {
      "inputs": [
        {
          "internalType": "address",
          "name": "approver",
          "type": "address"
        }
      ],
      "name": "ERC721InvalidApprover",
      "type": "error"
    },
    {
      "inputs": [
        {
          "internalType": "address",
          "name": "operator",
          "type": "address"
        }
      ],
      "name": "ERC721InvalidOperator",
      "type": "error"
    },
    {
      "inputs": [
        {
          "internalType": "address",
          "name": "owner",
          "type": "address"
        }
      ],
      "name": "ERC721InvalidOwner",
      "type": "error"
    },
    {
      "inputs": [
        {
          "internalType": "address",
          "name": "receiver",
          "type": "address"
        }
      ],
      "name": "ERC721InvalidReceiver",
      "type": "error"
    },
    {
      "inputs": [
        {
          "internalType": "address",
          "name": "sender",
          "type": "address"
        }
      ],
      "name": "ERC721InvalidSender",
      "type": "error"
    },
    {
      "inputs": [
        {
          "internalType": "uint256",
          "name": "tokenId",
          "type": "uint256"
        }
      ],
      "name": "ERC721NonexistentToken",
      "type": "error"
    },
    {
      "inputs": [],
      "name": "InsufficientPayment",
      "type": "error"
    },
    {
      "inputs": [],
      "name": "NoBalanceToWithdraw",
      "type": "error"
    },
    {
      "inputs": [
        {
          "internalType": "address",
          "name": "owner",
          "type": "address"
        }
      ],
      "name": "OwnableInvalidOwner",
      "type": "error"
    },
    {
      "inputs": [
        {
          "internalType": "address",
          "name": "account",
          "type": "address"
        }
      ],
      "name": "OwnableUnauthorizedAccount",
      "type": "error"
    },
    {
      "inputs": [],
      "name": "RefundFailed",
      "type": "error"
    },
    {
      "inputs": [],
      "name": "TokenDoesNotExist",
      "type": "error"
    },
    {
      "inputs": [],
      "name": "WithdrawalFailed",
      "type": "error"
    },
    {
      "anonymous": false,
      "inputs": [
        {
          "indexed": true,
          "internalType": "address",
          "name": "owner",
          "type": "address"
        },
        {
          "indexed": true,
          "internalType": "address",
          "name": "approved",
          "type": "address"
        },
        {
          "indexed": true,
          "internalType": "uint256",
          "name": "tokenId",
          "type": "uint256"
        }
      ],
      "name": "Approval",
      "type": "event"
    },
    {
      "anonymous": false,
      "inputs": [
        {
          "indexed": true,
          "internalType": "address",
          "name": "owner",
          "type": "address"
        },
        {
          "indexed": true,
          "internalType": "address",
          "name": "operator",
          "type": "address"
        },
        {
          "indexed": false,
          "internalType": "bool",
          "name": "approved",
          "type": "bool"
        }
      ],
      "name": "ApprovalForAll",
      "type": "event"
    },
    {
      "anonymous": false,
      "inputs": [
        {
          "indexed": true,
          "internalType": "uint256",
          "name": "tokenId",
          "type": "uint256"
        },
        {
          "indexed": false,
          "internalType": "uint8",
          "name": "automonId",
          "type": "uint8"
        },
        {
          "indexed": false,
          "internalType": "uint8",
          "name": "rarity",
          "type": "uint8"
        }
      ],
      "name": "CardMinted",
      "type": "event"
    },
    {
      "anonymous": false,
      "inputs": [
        {
          "indexed": true,
          "internalType": "address",
          "name": "previousOwner",
          "type": "address"
        },
        {
          "indexed": true,
          "internalType": "address",
          "name": "newOwner",
          "type": "address"
        }
      ],
      "name": "OwnershipTransferred",
      "type": "event"
    },
    {
      "anonymous": false,
      "inputs": [
        {
          "indexed": true,
          "internalType": "address",
          "name": "buyer",
          "type": "address"
        },
        {
          "indexed": false,
          "internalType": "uint256[]",
          "name": "tokenIds",
          "type": "uint256[]"
        }
      ],
      "name": "PackPurchased",
      "type": "event"
    },
    {
      "anonymous": false,
      "inputs": [
        {
          "indexed": true,
          "internalType": "address",
          "name": "from",
          "type": "address"
        },
        {
          "indexed": true,
          "internalType": "address",
          "name": "to",
          "type": "address"
        },
        {
          "indexed": true,
          "internalType": "uint256",
          "name": "tokenId",
          "type": "uint256"
        }
      ],
      "name": "Transfer",
      "type": "event"
    },
    {
      "inputs": [],
      "name": "CARDS_PER_PACK",
      "outputs": [
        {
          "internalType": "uint256",
          "name": "",
          "type": "uint256"
        }
      ],
      "stateMutability": "view",
      "type": "function"
    },
    {
      "inputs": [],
      "name": "PACK_PRICE",
      "outputs": [
        {
          "internalType": "uint256",
          "name": "",
          "type": "uint256"
        }
      ],
      "stateMutability": "view",
      "type": "function"
    },
    {
      "inputs": [],
      "name": "RARITY_COMMON",
      "outputs": [
        {
          "internalType": "uint8",
          "name": "",
          "type": "uint8"
        }
      ],
      "stateMutability": "view",
      "type": "function"
    },
    {
      "inputs": [],
      "name": "RARITY_EPIC",
      "outputs": [
        {
          "internalType": "uint8",
          "name": "",
          "type": "uint8"
        }
      ],
      "stateMutability": "view",
      "type": "function"
    },
    {
      "inputs": [],
      "name": "RARITY_LEGENDARY",
      "outputs": [
        {
          "internalType": "uint8",
          "name": "",
          "type": "uint8"
        }
      ],
      "stateMutability": "view",
      "type": "function"
    },
    {
      "inputs": [],
      "name": "RARITY_RARE",
      "outputs": [
        {
          "internalType": "uint8",
          "name": "",
          "type": "uint8"
        }
      ],
      "stateMutability": "view",
      "type": "function"
    },
    {
      "inputs": [],
      "name": "RARITY_UNCOMMON",
      "outputs": [
        {
          "internalType": "uint8",
          "name": "",
          "type": "uint8"
        }
      ],
      "stateMutability": "view",
      "type": "function"
    },
    {
      "inputs": [],
      "name": "TOTAL_AUTOMONS",
      "outputs": [
        {
          "internalType": "uint256",
          "name": "",
          "type": "uint256"
        }
      ],
      "stateMutability": "view",
      "type": "function"
    },
    {
      "inputs": [
        {
          "internalType": "address",
          "name": "to",
          "type": "address"
        },
        {
          "internalType": "uint256",
          "name": "tokenId",
          "type": "uint256"
        }
      ],
      "name": "approve",
      "outputs": [],
      "stateMutability": "nonpayable",
      "type": "function"
    },
    {
      "inputs": [
        {
          "internalType": "address",
          "name": "owner",
          "type": "address"
        }
      ],
      "name": "balanceOf",
      "outputs": [
        {
          "internalType": "uint256",
          "name": "",
          "type": "uint256"
        }
      ],
      "stateMutability": "view",
      "type": "function"
    },
    {
      "inputs": [],
      "name": "baseURI",
      "outputs": [
        {
          "internalType": "string",
          "name": "",
          "type": "string"
        }
      ],
      "stateMutability": "view",
      "type": "function"
    },
    {
      "inputs": [],
      "name": "buyPack",
      "outputs": [],
      "stateMutability": "payable",
      "type": "function"
    },
    {
      "inputs": [
        {
          "internalType": "uint256",
          "name": "",
          "type": "uint256"
        }
      ],
      "name": "cards",
      "outputs": [
        {
          "internalType": "uint8",
          "name": "automonId",
          "type": "uint8"
        },
        {
          "internalType": "uint8",
          "name": "rarity",
          "type": "uint8"
        }
      ],
      "stateMutability": "view",
      "type": "function"
    },
    {
      "inputs": [
        {
          "internalType": "uint256",
          "name": "tokenId",
          "type": "uint256"
        }
      ],
      "name": "exists",
      "outputs": [
        {
          "internalType": "bool",
          "name": "",
          "type": "bool"
        }
      ],
      "stateMutability": "view",
      "type": "function"
    },
    {
      "inputs": [
        {
          "internalType": "uint256",
          "name": "tokenId",
          "type": "uint256"
        }
      ],
      "name": "getApproved",
      "outputs": [
        {
          "internalType": "address",
          "name": "",
          "type": "address"
        }
      ],
      "stateMutability": "view",
      "type": "function"
    },
    {
      "inputs": [
        {
          "internalType": "uint256",
          "name": "tokenId",
          "type": "uint256"
        }
      ],
      "name": "getCard",
      "outputs": [
        {
          "internalType": "uint8",
          "name": "automonId",
          "type": "uint8"
        },
        {
          "internalType": "uint8",
          "name": "rarity",
          "type": "uint8"
        }
      ],
      "stateMutability": "view",
      "type": "function"
    },
    {
      "inputs": [
        {
          "internalType": "address",
          "name": "owner",
          "type": "address"
        }
      ],
      "name": "getCardsOf",
      "outputs": [
        {
          "internalType": "uint256[]",
          "name": "",
          "type": "uint256[]"
        }
      ],
      "stateMutability": "view",
      "type": "function"
    },
    {
      "inputs": [
        {
          "internalType": "address",
          "name": "owner",
          "type": "address"
        },
        {
          "internalType": "address",
          "name": "operator",
          "type": "address"
        }
      ],
      "name": "isApprovedForAll",
      "outputs": [
        {
          "internalType": "bool",
          "name": "",
          "type": "bool"
        }
      ],
      "stateMutability": "view",
      "type": "function"
    },
    {
      "inputs": [],
      "name": "name",
      "outputs": [
        {
          "internalType": "string",
          "name": "",
          "type": "string"
        }
      ],
      "stateMutability": "view",
      "type": "function"
    },
    {
      "inputs": [],
      "name": "owner",
      "outputs": [
        {
          "internalType": "address",
          "name": "",
          "type": "address"
        }
      ],
      "stateMutability": "view",
      "type": "function"
    },
    {
      "inputs": [
        {
          "internalType": "uint256",
          "name": "tokenId",
          "type": "uint256"
        }
      ],
      "name": "ownerOf",
      "outputs": [
        {
          "internalType": "address",
          "name": "",
          "type": "address"
        }
      ],
      "stateMutability": "view",
      "type": "function"
    },
    {
      "inputs": [],
      "name": "renounceOwnership",
      "outputs": [],
      "stateMutability": "nonpayable",
      "type": "function"
    },
    {
      "inputs": [
        {
          "internalType": "address",
          "name": "from",
          "type": "address"
        },
        {
          "internalType": "address",
          "name": "to",
          "type": "address"
        },
        {
          "internalType": "uint256",
          "name": "tokenId",
          "type": "uint256"
        }
      ],
      "name": "safeTransferFrom",
      "outputs": [],
      "stateMutability": "nonpayable",
      "type": "function"
    },
    {
      "inputs": [
        {
          "internalType": "address",
          "name": "from",
          "type": "address"
        },
        {
          "internalType": "address",
          "name": "to",
          "type": "address"
        },
        {
          "internalType": "uint256",
          "name": "tokenId",
          "type": "uint256"
        },
        {
          "internalType": "bytes",
          "name": "data",
          "type": "bytes"
        }
      ],
      "name": "safeTransferFrom",
      "outputs": [],
      "stateMutability": "nonpayable",
      "type": "function"
    },
    {
      "inputs": [
        {
          "internalType": "address",
          "name": "operator",
          "type": "address"
        },
        {
          "internalType": "bool",
          "name": "approved",
          "type": "bool"
        }
      ],
      "name": "setApprovalForAll",
      "outputs": [],
      "stateMutability": "nonpayable",
      "type": "function"
    },
    {
      "inputs": [
        {
          "internalType": "string",
          "name": "_baseURI",
          "type": "string"
        }
      ],
      "name": "setBaseURI",
      "outputs": [],
      "stateMutability": "nonpayable",
      "type": "function"
    },
    {
      "inputs": [
        {
          "internalType": "bytes4",
          "name": "interfaceId",
          "type": "bytes4"
        }
      ],
      "name": "supportsInterface",
      "outputs": [
        {
          "internalType": "bool",
          "name": "",
          "type": "bool"
        }
      ],
      "stateMutability": "view",
      "type": "function"
    },
    {
      "inputs": [],
      "name": "symbol",
      "outputs": [
        {
          "internalType": "string",
          "name": "",
          "type": "string"
        }
      ],
      "stateMutability": "view",
      "type": "function"
    },
    {
      "inputs": [
        {
          "internalType": "uint256",
          "name": "tokenId",
          "type": "uint256"
        }
      ],
      "name": "tokenURI",
      "outputs": [
        {
          "internalType": "string",
          "name": "",
          "type": "string"
        }
      ],
      "stateMutability": "view",
      "type": "function"
    },
    {
      "inputs": [],
      "name": "totalSupply",
      "outputs": [
        {
          "internalType": "uint256",
          "name": "",
          "type": "uint256"
        }
      ],
      "stateMutability": "view",
      "type": "function"
    },
    {
      "inputs": [
        {
          "internalType": "address",
          "name": "from",
          "type": "address"
        },
        {
          "internalType": "address",
          "name": "to",
          "type": "address"
        },
        {
          "internalType": "uint256",
          "name": "tokenId",
          "type": "uint256"
        }
      ],
      "name": "transferFrom",
      "outputs": [],
      "stateMutability": "nonpayable",
      "type": "function"
    },
    {
      "inputs": [
        {
          "internalType": "address",
          "name": "newOwner",
          "type": "address"
        }
      ],
      "name": "transferOwnership",
      "outputs": [],
      "stateMutability": "nonpayable",
      "type": "function"
    },
    {
      "inputs": [],
      "name": "withdraw",
      "outputs": [],
      "stateMutability": "nonpayable",
      "type": "function"
    }
  ],
  "bytecode": "0x60806040523480156200001157600080fd5b50604051620020453803806200204583398101604081905262000034916200014e565b336040518060400160405280600781526020016620baba37a6b7b760c91b8152506040518060400160405280600481526020016320a6a7a760e11b8152508160009081620000839190620002b2565b506001620000928282620002b2565b5050506001600160a01b038116620000c457604051631e4fbdf760e01b81526000600482015260240160405180910390fd5b620000cf81620000e6565b506009620000de8282620002b2565b50506200037e565b600680546001600160a01b038381166001600160a01b0319831681179093556040519116919082907f8be0079c531659141344cd1fd0a4f28419497f9722a3daafe3b4186f6b6457e090600090a35050565b634e487b7160e01b600052604160045260246000fd5b600060208083850312156200016257600080fd5b82516001600160401b03808211156200017a57600080fd5b818501915085601f8301126200018f57600080fd5b815181811115620001a457620001a462000138565b604051601f8201601f19908116603f01168101908382118183101715620001cf57620001cf62000138565b816040528281528886848701011115620001e857600080fd5b600093505b828410156200020c5784840186015181850187015292850192620001ed565b600086848301015280965050505050505092915050565b600181811c908216806200023857607f821691505b6020821081036200025957634e487b7160e01b600052602260045260246000fd5b50919050565b601f821115620002ad57600081815260208120601f850160051c81016020861015620002885750805b601f850160051c820191505b81811015620002a95782815560010162000294565b5050505b505050565b81516001600160401b03811115620002ce57620002ce62000138565b620002e681620002df845462000223565b846200025f565b602080601f8311600181146200031e5760008415620003055750858301515b600019600386901b1c1916600185901b178555620002a9565b600085815260208120601f198616915b828110156200034f578886015182559484019460019091019084016200032e565b50858210156200036e5787850151600019600388901b60f8161c191681555b5050505050600190811b01905550565b611cb7806200038e6000396000f3fe6080604052600436106101ed5760003560e01c8063715018a61161010d5780639e94bb93116100a0578063c87b56dd1161006f578063c87b56dd14610560578063e1ed6a5e14610580578063e985e9c5146105ad578063f2fde38b146105cd578063f83d758b146105ed57600080fd5b80639e94bb9314610503578063a22cb46514610518578063b88d4fde14610538578063c37b9bcd1461055857600080fd5b80638dc10768116100dc5780638dc107681461045f5780639188d312146104b257806395d89b41146104d25780639ad36137146104e757600080fd5b8063715018a6146104025780637aad8789146104175780638524ccee1461042c5780638da5cb5b1461044157600080fd5b8063302abf271161018557806355f804b31161015457806355f804b31461038d5780636352211e146103ad5780636c0360eb146103cd57806370a08231146103e257600080fd5b8063302abf27146103235780633ccfd60b1461033857806342842e0e1461034d5780634f558e791461036d57600080fd5b8063081812fc116101c1578063081812fc14610285578063095ea7b3146102bd57806318160ddd146102df57806323b872dd1461030357600080fd5b8062c84c20146101f257806301ffc9a71461021e5780630469e9451461024e57806306fdde0314610263575b600080fd5b3480156101fe57600080fd5b50610207600381565b60405160ff90911681526020015b60405180910390f35b34801561022a57600080fd5b5061023e610239366004611692565b610602565b6040519015158152602001610215565b34801561025a57600080fd5b50610207600181565b34801561026f57600080fd5b50610278610654565b6040516102159190611706565b34801561029157600080fd5b506102a56102a0366004611719565b6106e6565b6040516001600160a01b039091168152602001610215565b3480156102c957600080fd5b506102dd6102d836600461174e565b61070f565b005b3480156102eb57600080fd5b506102f560085481565b604051908152602001610215565b34801561030f57600080fd5b506102dd61031e366004611778565b61071e565b34801561032f57600080fd5b506102f5601481565b34801561034457600080fd5b506102dd6107ae565b34801561035957600080fd5b506102dd610368366004611778565b61085e565b34801561037957600080fd5b5061023e610388366004611719565b61087e565b34801561039957600080fd5b506102dd6103a8366004611840565b610893565b3480156103b957600080fd5b506102a56103c8366004611719565b6108a7565b3480156103d957600080fd5b506102786108b2565b3480156103ee57600080fd5b506102f56103fd366004611889565b610940565b34801561040e57600080fd5b506102dd610988565b34801561042357600080fd5b50610207600081565b34801561043857600080fd5b506102f5600581565b34801561044d57600080fd5b506006546001600160a01b03166102a5565b34801561046b57600080fd5b5061049861047a366004611719565b60076020526000908152604090205460ff8082169161010090041682565b6040805160ff938416815292909116602083015201610215565b3480156104be57600080fd5b506104986104cd366004611719565b61099c565b3480156104de57600080fd5b50610278610a01565b3480156104f357600080fd5b506102f567016345785d8a000081565b34801561050f57600080fd5b50610207600281565b34801561052457600080fd5b506102dd6105333660046118a4565b610a10565b34801561054457600080fd5b506102dd6105533660046118e0565b610a1b565b6102dd610a33565b34801561056c57600080fd5b5061027861057b366004611719565b610c59565b34801561058c57600080fd5b506105a061059b366004611889565b610cb9565b604051610215919061195c565b3480156105b957600080fd5b5061023e6105c83660046119a0565b610d92565b3480156105d957600080fd5b506102dd6105e8366004611889565b610dc0565b3480156105f957600080fd5b50610207600481565b60006001600160e01b031982166380ac58cd60e01b148061063357506001600160e01b03198216635b5e139f60e01b145b8061064e57506301ffc9a760e01b6001600160e01b03198316145b92915050565b606060008054610663906119d3565b80601f016020809104026020016040519081016040528092919081815260200182805461068f906119d3565b80156106dc5780601f106106b1576101008083540402835291602001916106dc565b820191906000526020600020905b8154815290600101906020018083116106bf57829003601f168201915b5050505050905090565b60006106f182610dfb565b506000828152600460205260409020546001600160a01b031661064e565b61071a828233610e34565b5050565b6001600160a01b03821661074d57604051633250574960e11b8152600060048201526024015b60405180910390fd5b600061075a838333610e41565b9050836001600160a01b0316816001600160a01b0316146107a8576040516364283d7b60e01b81526001600160a01b0380861660048301526024820184905282166044820152606401610744565b50505050565b6107b6610f3a565b4760008190036107d95760405163177b02e160e31b815260040160405180910390fd5b60006107ed6006546001600160a01b031690565b6001600160a01b03168260405160006040518083038185875af1925050503d8060008114610837576040519150601f19603f3d011682016040523d82523d6000602084013e61083c565b606091505b505090508061071a576040516327fcd9d160e01b815260040160405180910390fd5b61087983838360405180602001604052806000815250610a1b565b505050565b6000808211801561064e575050600854101590565b61089b610f3a565b600961071a8282611a53565b600061064e82610dfb565b600980546108bf906119d3565b80601f01602080910402602001604051908101604052809291908181526020018280546108eb906119d3565b80156109385780601f1061090d57610100808354040283529160200191610938565b820191906000526020600020905b81548152906001019060200180831161091b57829003601f168201915b505050505081565b60006001600160a01b03821661096c576040516322718ad960e21b815260006004820152602401610744565b506001600160a01b031660009081526003602052604090205490565b610990610f3a565b61099a6000610f67565b565b6000808215806109ad575060085483115b156109cb5760405163677510db60e11b815260040160405180910390fd5b505060009081526007602090815260409182902082518084019093525460ff808216808552610100909204169290910182905291565b606060018054610663906119d3565b61071a338383610fb9565b610a2684848461071e565b6107a83385858585611058565b67016345785d8a0000341015610a5c5760405163cd1c886760e01b815260040160405180910390fd5b60408051600580825260c082019092526000916020820160a08036833701905050905060005b6005811015610b8c576000600860008154610a9c90611b29565b918290555090506000610aaf8284611183565b90506000610abd8385611207565b60408051808201825260ff80861682528084166020808401918252600089815260079091529390932091518254935182166101000261ffff199094169116179190911790559050610b0e33846112df565b82858581518110610b2157610b21611b42565b602002602001018181525050827fdec7a0da02547a23326a2082821c2e2ca351e97f0a9bb2a52e12e15823ea62248383604051610b6e92919060ff92831681529116602082015260400190565b60405180910390a25050508080610b8490611b29565b915050610a82565b50336001600160a01b03167f058ca9ce7e06837f5159fade18c268f4d8197720d368f730027891affbdcdf0a82604051610bc6919061195c565b60405180910390a267016345785d8a0000341115610c5657600033610bf367016345785d8a000034611b58565b604051600081818185875af1925050503d8060008114610c2f576040519150601f19603f3d011682016040523d82523d6000602084013e610c34565b606091505b505090508061071a57604051633c31275160e21b815260040160405180910390fd5b50565b6060811580610c69575060085482115b15610c875760405163677510db60e11b815260040160405180910390fd5b6009610c9283611344565b604051602001610ca3929190611b6b565b6040516020818303038152906040529050919050565b60606000610cc683610940565b905060008167ffffffffffffffff811115610ce357610ce36117b4565b604051908082528060200260200182016040528015610d0c578160200160208202803683370190505b509050600060015b6008548111158015610d2557508382105b15610d88576000818152600260205260409020546001600160a01b03878116911603610d7657808383610d5781611b29565b945081518110610d6957610d69611b42565b6020026020010181815250505b80610d8081611b29565b915050610d14565b5090949350505050565b6001600160a01b03918216600090815260056020908152604080832093909416825291909152205460ff1690565b610dc8610f3a565b6001600160a01b038116610df257604051631e4fbdf760e01b815260006004820152602401610744565b610c5681610f67565b6000818152600260205260408120546001600160a01b03168061064e57604051637e27328960e01b815260048101849052602401610744565b61087983838360016113d7565b6000828152600260205260408120546001600160a01b0390811690831615610e6e57610e6e8184866114dd565b6001600160a01b03811615610eac57610e8b6000856000806113d7565b6001600160a01b038116600090815260036020526040902080546000190190555b6001600160a01b03851615610edb576001600160a01b0385166000908152600360205260409020805460010190555b60008481526002602052604080822080546001600160a01b0319166001600160a01b0389811691821790925591518793918516917fddf252ad1be2c89b69c2b068fc378daa952ba7f163c4a11628f55a4df523b3ef91a4949350505050565b6006546001600160a01b0316331461099a5760405163118cdaa760e01b8152336004820152602401610744565b600680546001600160a01b038381166001600160a01b0319831681179093556040519116919082907f8be0079c531659141344cd1fd0a4f28419497f9722a3daafe3b4186f6b6457e090600090a35050565b6001600160a01b038216610feb57604051630b61174360e31b81526001600160a01b0383166004820152602401610744565b6001600160a01b03838116600081815260056020908152604080832094871680845294825291829020805460ff191686151590811790915591519182527f17307eab39ab6107e8899845ad3d59bd9653f200f220920489ca2b5937696c31910160405180910390a3505050565b6001600160a01b0383163b1561117c57604051630a85bd0160e11b81526001600160a01b0384169063150b7a029061109a908890889087908790600401611bf2565b6020604051808303816000875af19250505080156110d5575060408051601f3d908101601f191682019092526110d291810190611c2f565b60015b61113e573d808015611103576040519150601f19603f3d011682016040523d82523d6000602084013e611108565b606091505b50805160000361113657604051633250574960e11b81526001600160a01b0385166004820152602401610744565b805160208201fd5b6001600160e01b03198116630a85bd0160e11b1461117a57604051633250574960e11b81526001600160a01b0385166004820152602401610744565b505b5050505050565b6040805142602080830191909152448284015233606090811b6bffffffffffffffffffffffff191690830152607482018590526094820184905268185d5d1bdb5bdb925960ba1b60b48301528251808303609d01815260bd90920190925280519101206000906111f4601482611c4c565b6111ff906001611c6e565b949350505050565b60008060644244338787604051602001611264959493929190948552602085019390935260609190911b6bffffffffffffffffffffffff19166040840152605483015260748201526572617269747960d01b6094820152609a0190565b6040516020818303038152906040528051906020012060001c6112879190611c4c565b9050603c81101561129c57600091505061064e565b60558110156112af57600191505061064e565b605f8110156112c257600291505061064e565b60638110156112d557600391505061064e565b5060049392505050565b6001600160a01b03821661130957604051633250574960e11b815260006004820152602401610744565b600061131783836000610e41565b90506001600160a01b03811615610879576040516339e3563760e11b815260006004820152602401610744565b6060600061135183611541565b600101905060008167ffffffffffffffff811115611371576113716117b4565b6040519080825280601f01601f19166020018201604052801561139b576020820181803683370190505b5090508181016020015b600019016f181899199a1a9b1b9c1cb0b131b232b360811b600a86061a8153600a85049450846113a557509392505050565b80806113eb57506001600160a01b03821615155b156114ad5760006113fb84610dfb565b90506001600160a01b038316158015906114275750826001600160a01b0316816001600160a01b031614155b801561143a57506114388184610d92565b155b156114635760405163a9fbf51f60e01b81526001600160a01b0384166004820152602401610744565b81156114ab5783856001600160a01b0316826001600160a01b03167f8c5be1e5ebec7d5bd14f71427d1e84f3dd0314c0f7b2291e5b200ac8c7c3b92560405160405180910390a45b505b5050600090815260046020526040902080546001600160a01b0319166001600160a01b0392909216919091179055565b6114e8838383611619565b610879576001600160a01b03831661151657604051637e27328960e01b815260048101829052602401610744565b60405163177e802f60e01b81526001600160a01b038316600482015260248101829052604401610744565b60008072184f03e93ff9f4daa797ed6e38ed64bf6a1f0160401b83106115805772184f03e93ff9f4daa797ed6e38ed64bf6a1f0160401b830492506040015b6d04ee2d6d415b85acef810000000083106115ac576d04ee2d6d415b85acef8100000000830492506020015b662386f26fc1000083106115ca57662386f26fc10000830492506010015b6305f5e10083106115e2576305f5e100830492506008015b61271083106115f657612710830492506004015b60648310611608576064830492506002015b600a831061064e5760010192915050565b60006001600160a01b038316158015906111ff5750826001600160a01b0316846001600160a01b0316148061165357506116538484610d92565b806111ff5750506000908152600460205260409020546001600160a01b03908116911614919050565b6001600160e01b031981168114610c5657600080fd5b6000602082840312156116a457600080fd5b81356116af8161167c565b9392505050565b60005b838110156116d15781810151838201526020016116b9565b50506000910152565b600081518084526116f28160208601602086016116b6565b601f01601f19169290920160200192915050565b6020815260006116af60208301846116da565b60006020828403121561172b57600080fd5b5035919050565b80356001600160a01b038116811461174957600080fd5b919050565b6000806040838503121561176157600080fd5b61176a83611732565b946020939093013593505050565b60008060006060848603121561178d57600080fd5b61179684611732565b92506117a460208501611732565b9150604084013590509250925092565b634e487b7160e01b600052604160045260246000fd5b600067ffffffffffffffff808411156117e5576117e56117b4565b604051601f8501601f19908116603f0116810190828211818310171561180d5761180d6117b4565b8160405280935085815286868601111561182657600080fd5b858560208301376000602087830101525050509392505050565b60006020828403121561185257600080fd5b813567ffffffffffffffff81111561186957600080fd5b8201601f8101841361187a57600080fd5b6111ff848235602084016117ca565b60006020828403121561189b57600080fd5b6116af82611732565b600080604083850312156118b757600080fd5b6118c083611732565b9150602083013580151581146118d557600080fd5b809150509250929050565b600080600080608085870312156118f657600080fd5b6118ff85611732565b935061190d60208601611732565b925060408501359150606085013567ffffffffffffffff81111561193057600080fd5b8501601f8101871361194157600080fd5b611950878235602084016117ca565b91505092959194509250565b6020808252825182820181905260009190848201906040850190845b8181101561199457835183529284019291840191600101611978565b50909695505050505050565b600080604083850312156119b357600080fd5b6119bc83611732565b91506119ca60208401611732565b90509250929050565b600181811c908216806119e757607f821691505b602082108103611a0757634e487b7160e01b600052602260045260246000fd5b50919050565b601f82111561087957600081815260208120601f850160051c81016020861015611a345750805b601f850160051c820191505b8181101561117a57828155600101611a40565b815167ffffffffffffffff811115611a6d57611a6d6117b4565b611a8181611a7b84546119d3565b84611a0d565b602080601f831160018114611ab65760008415611a9e5750858301515b600019600386901b1c1916600185901b17855561117a565b600085815260208120601f198616915b82811015611ae557888601518255948401946001909101908401611ac6565b5085821015611b035787850151600019600388901b60f8161c191681555b5050505050600190811b01905550565b634e487b7160e01b600052601160045260246000fd5b600060018201611b3b57611b3b611b13565b5060010190565b634e487b7160e01b600052603260045260246000fd5b8181038181111561064e5761064e611b13565b6000808454611b79816119d3565b60018281168015611b915760018114611ba657611bd5565b60ff1984168752821515830287019450611bd5565b8860005260208060002060005b85811015611bcc5781548a820152908401908201611bb3565b50505082870194505b505050508351611be98183602088016116b6565b01949350505050565b6001600160a01b0385811682528416602082015260408101839052608060608201819052600090611c25908301846116da565b9695505050505050565b600060208284031215611c4157600080fd5b81516116af8161167c565b600082611c6957634e487b7160e01b600052601260045260246000fd5b500690565b8082018082111561064e5761064e611b1356fea26469706673582212206fc4697e4d0fe409cb0bbdaf7022059993e0ece69a48024e62a2fe6be7cf55b464736f6c63430008140033",
  "linkReferences": {},
  "deployedLinkReferences": {}
}